{
  "address": "0x119B90162cd2Ca80ac8b5B013a02eFAf589F22a0",
  "abi": [
    {
      "inputs": [
        {
          "internalType": "address[]",
          "name": "_listOpenSeaAddresses",
          "type": "address[]"
        },
        {
          "internalType": "address",
          "name": "_proxyRegistryAddress",
          "type": "address"
        }
      ],
      "stateMutability": "nonpayable",
      "type": "constructor"
    },
    {
      "anonymous": false,
      "inputs": [
        {
          "indexed": true,
          "internalType": "address",
          "name": "owner",
          "type": "address"
        },
        {
          "indexed": true,
          "internalType": "address",
          "name": "approved",
          "type": "address"
        },
        {
          "indexed": true,
          "internalType": "uint256",
          "name": "tokenId",
          "type": "uint256"
        }
      ],
      "name": "Approval",
      "type": "event"
    },
    {
      "anonymous": false,
      "inputs": [
        {
          "indexed": true,
          "internalType": "address",
          "name": "owner",
          "type": "address"
        },
        {
          "indexed": true,
          "internalType": "address",
          "name": "operator",
          "type": "address"
        },
        {
          "indexed": false,
          "internalType": "bool",
          "name": "approved",
          "type": "bool"
        }
      ],
      "name": "ApprovalForAll",
      "type": "event"
    },
    {
      "anonymous": false,
      "inputs": [
        {
          "indexed": false,
          "internalType": "address",
          "name": "userAddress",
          "type": "address"
        },
        {
          "indexed": false,
          "internalType": "address payable",
          "name": "relayerAddress",
          "type": "address"
        },
        {
          "indexed": false,
          "internalType": "bytes",
          "name": "functionSignature",
          "type": "bytes"
        }
      ],
      "name": "MetaTransactionExecuted",
      "type": "event"
    },
    {
      "anonymous": false,
      "inputs": [
        {
          "indexed": true,
          "internalType": "address",
          "name": "previousOwner",
          "type": "address"
        },
        {
          "indexed": true,
          "internalType": "address",
          "name": "newOwner",
          "type": "address"
        }
      ],
      "name": "OwnershipTransferred",
      "type": "event"
    },
    {
      "anonymous": false,
      "inputs": [
        {
          "indexed": true,
          "internalType": "address",
          "name": "from",
          "type": "address"
        },
        {
          "indexed": true,
          "internalType": "address",
          "name": "to",
          "type": "address"
        },
        {
          "indexed": true,
          "internalType": "uint256",
          "name": "tokenId",
          "type": "uint256"
        }
      ],
      "name": "Transfer",
      "type": "event"
    },
    {
      "inputs": [],
      "name": "ERC712_VERSION",
      "outputs": [
        {
          "internalType": "string",
          "name": "",
          "type": "string"
        }
      ],
      "stateMutability": "view",
      "type": "function"
    },
    {
      "inputs": [
        {
          "internalType": "address[]",
          "name": "listAddresses",
          "type": "address[]"
        }
      ],
      "name": "addOpenSeaAddress",
      "outputs": [],
      "stateMutability": "nonpayable",
      "type": "function"
    },
    {
      "inputs": [
        {
          "internalType": "address",
          "name": "to",
          "type": "address"
        },
        {
          "internalType": "uint256",
          "name": "tokenId",
          "type": "uint256"
        }
      ],
      "name": "approve",
      "outputs": [],
      "stateMutability": "nonpayable",
      "type": "function"
    },
    {
      "inputs": [
        {
          "internalType": "address",
          "name": "owner",
          "type": "address"
        }
      ],
      "name": "balanceOf",
      "outputs": [
        {
          "internalType": "uint256",
          "name": "",
          "type": "uint256"
        }
      ],
      "stateMutability": "view",
      "type": "function"
    },
    {
      "inputs": [],
      "name": "baseTokenURI",
      "outputs": [
        {
          "internalType": "string",
          "name": "",
          "type": "string"
        }
      ],
      "stateMutability": "pure",
      "type": "function"
    },
    {
      "inputs": [
        {
          "internalType": "address",
          "name": "userAddress",
          "type": "address"
        },
        {
          "internalType": "bytes",
          "name": "functionSignature",
          "type": "bytes"
        },
        {
          "internalType": "bytes32",
          "name": "sigR",
          "type": "bytes32"
        },
        {
          "internalType": "bytes32",
          "name": "sigS",
          "type": "bytes32"
        },
        {
          "internalType": "uint8",
          "name": "sigV",
          "type": "uint8"
        }
      ],
      "name": "executeMetaTransaction",
      "outputs": [
        {
          "internalType": "bytes",
          "name": "",
          "type": "bytes"
        }
      ],
      "stateMutability": "payable",
      "type": "function"
    },
    {
      "inputs": [
        {
          "internalType": "uint256",
          "name": "tokenId",
          "type": "uint256"
        }
      ],
      "name": "getApproved",
      "outputs": [
        {
          "internalType": "address",
          "name": "",
          "type": "address"
        }
      ],
      "stateMutability": "view",
      "type": "function"
    },
    {
      "inputs": [],
      "name": "getChainId",
      "outputs": [
        {
          "internalType": "uint256",
          "name": "",
          "type": "uint256"
        }
      ],
      "stateMutability": "view",
      "type": "function"
    },
    {
      "inputs": [],
      "name": "getDomainSeperator",
      "outputs": [
        {
          "internalType": "bytes32",
          "name": "",
          "type": "bytes32"
        }
      ],
      "stateMutability": "view",
      "type": "function"
    },
    {
      "inputs": [
        {
          "internalType": "address",
          "name": "user",
          "type": "address"
        }
      ],
      "name": "getNonce",
      "outputs": [
        {
          "internalType": "uint256",
          "name": "nonce",
          "type": "uint256"
        }
      ],
      "stateMutability": "view",
      "type": "function"
    },
    {
      "inputs": [
        {
          "internalType": "address",
          "name": "owner",
          "type": "address"
        },
        {
          "internalType": "address",
          "name": "operator",
          "type": "address"
        }
      ],
      "name": "isApprovedForAll",
      "outputs": [
        {
          "internalType": "bool",
          "name": "",
          "type": "bool"
        }
      ],
      "stateMutability": "view",
      "type": "function"
    },
    {
      "inputs": [
        {
          "internalType": "address",
          "name": "_to",
          "type": "address"
        }
      ],
      "name": "mintTo",
      "outputs": [],
      "stateMutability": "nonpayable",
      "type": "function"
    },
    {
      "inputs": [],
      "name": "name",
      "outputs": [
        {
          "internalType": "string",
          "name": "",
          "type": "string"
        }
      ],
      "stateMutability": "view",
      "type": "function"
    },
    {
      "inputs": [
        {
          "internalType": "address",
          "name": "",
          "type": "address"
        }
      ],
      "name": "openSeaAddress",
      "outputs": [
        {
          "internalType": "uint256",
          "name": "",
          "type": "uint256"
        }
      ],
      "stateMutability": "view",
      "type": "function"
    },
    {
      "inputs": [],
      "name": "owner",
      "outputs": [
        {
          "internalType": "address",
          "name": "",
          "type": "address"
        }
      ],
      "stateMutability": "view",
      "type": "function"
    },
    {
      "inputs": [
        {
          "internalType": "uint256",
          "name": "tokenId",
          "type": "uint256"
        }
      ],
      "name": "ownerOf",
      "outputs": [
        {
          "internalType": "address",
          "name": "",
          "type": "address"
        }
      ],
      "stateMutability": "view",
      "type": "function"
    },
    {
      "inputs": [
        {
          "internalType": "address[]",
          "name": "listAddresses",
          "type": "address[]"
        }
      ],
      "name": "removeOpenSeaAddress",
      "outputs": [],
      "stateMutability": "nonpayable",
      "type": "function"
    },
    {
      "inputs": [],
      "name": "renounceOwnership",
      "outputs": [],
      "stateMutability": "nonpayable",
      "type": "function"
    },
    {
      "inputs": [
        {
          "internalType": "address",
          "name": "from",
          "type": "address"
        },
        {
          "internalType": "address",
          "name": "to",
          "type": "address"
        },
        {
          "internalType": "uint256",
          "name": "tokenId",
          "type": "uint256"
        }
      ],
      "name": "safeTransferFrom",
      "outputs": [],
      "stateMutability": "nonpayable",
      "type": "function"
    },
    {
      "inputs": [
        {
          "internalType": "address",
          "name": "from",
          "type": "address"
        },
        {
          "internalType": "address",
          "name": "to",
          "type": "address"
        },
        {
          "internalType": "uint256",
          "name": "tokenId",
          "type": "uint256"
        },
        {
          "internalType": "bytes",
          "name": "_data",
          "type": "bytes"
        }
      ],
      "name": "safeTransferFrom",
      "outputs": [],
      "stateMutability": "nonpayable",
      "type": "function"
    },
    {
      "inputs": [
        {
          "internalType": "address",
          "name": "operator",
          "type": "address"
        },
        {
          "internalType": "bool",
          "name": "approved",
          "type": "bool"
        }
      ],
      "name": "setApprovalForAll",
      "outputs": [],
      "stateMutability": "nonpayable",
      "type": "function"
    },
    {
      "inputs": [
        {
          "internalType": "bytes4",
          "name": "interfaceId",
          "type": "bytes4"
        }
      ],
      "name": "supportsInterface",
      "outputs": [
        {
          "internalType": "bool",
          "name": "",
          "type": "bool"
        }
      ],
      "stateMutability": "view",
      "type": "function"
    },
    {
      "inputs": [],
      "name": "symbol",
      "outputs": [
        {
          "internalType": "string",
          "name": "",
          "type": "string"
        }
      ],
      "stateMutability": "view",
      "type": "function"
    },
    {
      "inputs": [
        {
          "internalType": "uint256",
          "name": "index",
          "type": "uint256"
        }
      ],
      "name": "tokenByIndex",
      "outputs": [
        {
          "internalType": "uint256",
          "name": "",
          "type": "uint256"
        }
      ],
      "stateMutability": "view",
      "type": "function"
    },
    {
      "inputs": [
        {
          "internalType": "address",
          "name": "owner",
          "type": "address"
        },
        {
          "internalType": "uint256",
          "name": "index",
          "type": "uint256"
        }
      ],
      "name": "tokenOfOwnerByIndex",
      "outputs": [
        {
          "internalType": "uint256",
          "name": "",
          "type": "uint256"
        }
      ],
      "stateMutability": "view",
      "type": "function"
    },
    {
      "inputs": [
        {
          "internalType": "uint256",
          "name": "_tokenId",
          "type": "uint256"
        }
      ],
      "name": "tokenURI",
      "outputs": [
        {
          "internalType": "string",
          "name": "",
          "type": "string"
        }
      ],
      "stateMutability": "pure",
      "type": "function"
    },
    {
      "inputs": [],
      "name": "totalSupply",
      "outputs": [
        {
          "internalType": "uint256",
          "name": "",
          "type": "uint256"
        }
      ],
      "stateMutability": "view",
      "type": "function"
    },
    {
      "inputs": [
        {
          "internalType": "uint256",
          "name": "",
          "type": "uint256"
        }
      ],
      "name": "tradeCount",
      "outputs": [
        {
          "internalType": "uint256",
          "name": "",
          "type": "uint256"
        }
      ],
      "stateMutability": "view",
      "type": "function"
    },
    {
      "inputs": [
        {
          "internalType": "address",
          "name": "from",
          "type": "address"
        },
        {
          "internalType": "address",
          "name": "to",
          "type": "address"
        },
        {
          "internalType": "uint256",
          "name": "tokenId",
          "type": "uint256"
        }
      ],
      "name": "transferFrom",
      "outputs": [],
      "stateMutability": "nonpayable",
      "type": "function"
    },
    {
      "inputs": [
        {
          "internalType": "address",
          "name": "newOwner",
          "type": "address"
        }
      ],
      "name": "transferOwnership",
      "outputs": [],
      "stateMutability": "nonpayable",
      "type": "function"
    }
  ],
  "transactionHash": "0x1c47d7ba26182c6d0a499feefab033f5acdd41c05412edd07d30d208f4fb790b",
  "args": [
    [
      "0xf57b2c51ded3a29e6891aba85459d600256cf317"
    ],
    "0xf57b2c51ded3a29e6891aba85459d600256cf317"
  ],
  "solcInputHash": "88e7e7d600b6a3a984953008f6228309",
  "bytecode": "0x6080604052600a805460ff191690556000600f553480156200002057600080fd5b50604051620038a5380380620038a583398101604081905262000043916200040d565b60405180604001604052806008815260200167437265617475726560c01b8152506040518060400160405280600481526020016327a9a19960e11b81525082828281600090805190602001906200009c9291906200034a565b508051620000b29060019060208401906200034a565b505050620000cf620000c96200011360201b60201c565b62000130565b600e80546001600160a01b0319166001600160a01b038316179055620000f58362000182565b5050506200010b826001620001cc60201b60201c565b5050620005be565b60006200012a6200024660201b620012861760201c565b90505b90565b600d80546001600160a01b038381166001600160a01b0319831681179093556040519116919082907f8be0079c531659141344cd1fd0a4f28419497f9722a3daafe3b4186f6b6457e090600090a35050565b600a5460ff1615620001b15760405162461bcd60e51b8152600401620001a8906200051b565b60405180910390fd5b620001bc81620002a4565b50600a805460ff19166001179055565b60005b825181101562000241578160116000858481518110620001ff57634e487b7160e01b600052603260045260246000fd5b60200260200101516001600160a01b03166001600160a01b03168152602001908152602001600020819055508080620002389062000580565b915050620001cf565b505050565b6000333014156200029f57600080368080601f0160208091040260200160405190810160405280939291908181526020018383808284376000920191909152505050503601516001600160a01b031691506200012d9050565b503390565b6040518060800160405280604f815260200162003856604f913980516020918201208251838301206040805180820190915260018152603160f81b930192909252907fc89efdaa54c0f20c7adf612882df0950f5a951637e0307cdcb4c672f298b8bc6306200031262000346565b60405162000328959493929190602001620004ef565b60408051601f198184030181529190528051602090910120600b5550565b4690565b828054620003589062000543565b90600052602060002090601f0160209004810192826200037c5760008555620003c7565b82601f106200039757805160ff1916838001178555620003c7565b82800160010185558215620003c7579182015b82811115620003c7578251825591602001919060010190620003aa565b50620003d5929150620003d9565b5090565b5b80821115620003d55760008155600101620003da565b80516001600160a01b03811681146200040857600080fd5b919050565b6000806040838503121562000420578182fd5b82516001600160401b038082111562000437578384fd5b818501915085601f8301126200044b578384fd5b8151602082821115620004625762000462620005a8565b80820260405182828201018181108682111715620004845762000484620005a8565b604052838152828101945085830182870184018b1015620004a3578889fd5b8896505b84871015620004d057620004bb81620003f0565b865260019690960195948301948301620004a7565b509650620004e29050878201620003f0565b9450505050509250929050565b948552602085019390935260408401919091526001600160a01b03166060830152608082015260a00190565b6020808252600e908201526d185b1c9958591e481a5b9a5d195960921b604082015260600190565b6002810460018216806200055857607f821691505b602082108114156200057a57634e487b7160e01b600052602260045260246000fd5b50919050565b6000600019821415620005a157634e487b7160e01b81526011600452602481fd5b5060010190565b634e487b7160e01b600052604160045260246000fd5b61328880620005ce6000396000f3fe6080604052600436106101cd5760003560e01c80635f263730116100f75780638da5cb5b11610095578063c87b56dd11610064578063c87b56dd146104ec578063d547cfb71461050c578063e985e9c514610521578063f2fde38b14610541576101cd565b80638da5cb5b1461048257806395d89b4114610497578063a22cb465146104ac578063b88d4fde146104cc576101cd565b8063715018a6116100d1578063715018a61461040d578063755edd171461042257806384cace0d146104425780638639d76014610462576101cd565b80635f263730146103ad5780636352211e146103cd57806370a08231146103ed576101cd565b80631eda64651161016f5780632f745c591161013e5780632f745c59146103385780633408e4701461035857806342842e0e1461036d5780634f6ccce71461038d576101cd565b80631eda6465146102c357806320379ee5146102e357806323b872dd146102f85780632d0335ab14610318576101cd565b8063095ea7b3116101ab578063095ea7b3146102575780630c53c51c146102795780630f7e59701461028c57806318160ddd146102a1576101cd565b806301ffc9a7146101d257806306fdde0314610208578063081812fc1461022a575b600080fd5b3480156101de57600080fd5b506101f26101ed3660046126b6565b610561565b6040516101ff91906128c7565b60405180910390f35b34801561021457600080fd5b5061021d6105bf565b6040516101ff919061292a565b34801561023657600080fd5b5061024a6102453660046126ee565b610652565b6040516101ff919061281b565b34801561026357600080fd5b506102776102723660046125d8565b6106c5565b005b61021d61028736600461255d565b6107c5565b34801561029857600080fd5b5061021d6109cb565b3480156102ad57600080fd5b506102b6610a04565b6040516101ff91906128d2565b3480156102cf57600080fd5b506102776102de366004612603565b610a0a565b3480156102ef57600080fd5b506102b6610a8b565b34801561030457600080fd5b50610277610313366004612482565b610a91565b34801561032457600080fd5b506102b6610333366004612412565b610ae3565b34801561034457600080fd5b506102b66103533660046125d8565b610b0b565b34801561036457600080fd5b506102b6610b87565b34801561037957600080fd5b50610277610388366004612482565b610b8b565b34801561039957600080fd5b506102b66103a83660046126ee565b610ba6565b3480156103b957600080fd5b506102776103c8366004612603565b610c34565b3480156103d957600080fd5b5061024a6103e83660046126ee565b610cb2565b3480156103f957600080fd5b506102b6610408366004612412565b610d0e565b34801561041957600080fd5b50610277610d86565b34801561042e57600080fd5b5061027761043d366004612412565b610e05565b34801561044e57600080fd5b506102b661045d366004612412565b610e9a565b34801561046e57600080fd5b506102b661047d3660046126ee565b610eac565b34801561048e57600080fd5b5061024a610ebe565b3480156104a357600080fd5b5061021d610eda565b3480156104b857600080fd5b506102776104c736600461252c565b610ee9565b3480156104d857600080fd5b506102776104e73660046124c2565b611023565b3480156104f857600080fd5b5061021d6105073660046126ee565b61107c565b34801561051857600080fd5b5061021d6110b6565b34801561052d57600080fd5b506101f261053c36600461244a565b6110d6565b34801561054d57600080fd5b5061027761055c366004612412565b6111bd565b60007fffffffff0000000000000000000000000000000000000000000000000000000082167f780e9d630000000000000000000000000000000000000000000000000000000014806105b757506105b7826112ef565b90505b919050565b6060600080546105ce90613058565b80601f01602080910402602001604051908101604052809291908181526020018280546105fa90613058565b80156106475780601f1061061c57610100808354040283529160200191610647565b820191906000526020600020905b81548152906001019060200180831161062a57829003601f168201915b505050505090505b90565b600061065d82611391565b61069c576040517f08c379a000000000000000000000000000000000000000000000000000000000815260040161069390612d5c565b60405180910390fd5b5060009081526004602052604090205473ffffffffffffffffffffffffffffffffffffffff1690565b60006106d082610cb2565b90508073ffffffffffffffffffffffffffffffffffffffff168373ffffffffffffffffffffffffffffffffffffffff161415610738576040517f08c379a000000000000000000000000000000000000000000000000000000000815260040161069390612ea8565b8073ffffffffffffffffffffffffffffffffffffffff166107576113bb565b73ffffffffffffffffffffffffffffffffffffffff16148061078057506107808161053c6113bb565b6107b6576040517f08c379a000000000000000000000000000000000000000000000000000000000815260040161069390612c10565b6107c083836113ca565b505050565b604080516060818101835273ffffffffffffffffffffffffffffffffffffffff88166000818152600c602090815290859020548452830152918101869052610810878287878761146a565b610846576040517f08c379a000000000000000000000000000000000000000000000000000000000815260040161069390612e4b565b73ffffffffffffffffffffffffffffffffffffffff87166000908152600c6020526040902054610877906001611551565b73ffffffffffffffffffffffffffffffffffffffff88166000908152600c60205260409081902091909155517f5845892132946850460bff5a0083f71031bc5bf9aadcd40f1de79423eac9b10b906108d490899033908a9061283c565b60405180910390a16000803073ffffffffffffffffffffffffffffffffffffffff16888a60405160200161090992919061276c565b604080517fffffffffffffffffffffffffffffffffffffffffffffffffffffffffffffffe08184030181529082905261094191612750565b6000604051808303816000865af19150503d806000811461097e576040519150601f19603f3d011682016040523d82523d6000602084013e610983565b606091505b5091509150816109bf576040517f08c379a000000000000000000000000000000000000000000000000000000000815260040161069390612a54565b98975050505050505050565b6040518060400160405280600181526020017f310000000000000000000000000000000000000000000000000000000000000081525081565b60085490565b610a126113bb565b73ffffffffffffffffffffffffffffffffffffffff16610a30610ebe565b73ffffffffffffffffffffffffffffffffffffffff1614610a7d576040517f08c379a000000000000000000000000000000000000000000000000000000000815260040161069390612db9565b610a88816001611564565b50565b600b5490565b610aa2610a9c6113bb565b82611607565b610ad8576040517f08c379a000000000000000000000000000000000000000000000000000000000815260040161069390612f05565b6107c08383836116d2565b73ffffffffffffffffffffffffffffffffffffffff166000908152600c602052604090205490565b6000610b1683610d0e565b8210610b4e576040517f08c379a00000000000000000000000000000000000000000000000000000000081526004016106939061293d565b5073ffffffffffffffffffffffffffffffffffffffff821660009081526006602090815260408083208484529091529020545b92915050565b4690565b6107c083838360405180602001604052806000815250611023565b6000610bb0610a04565b8210610be8576040517f08c379a000000000000000000000000000000000000000000000000000000000815260040161069390612f62565b60088281548110610c22577f4e487b7100000000000000000000000000000000000000000000000000000000600052603260045260246000fd5b90600052602060002001549050919050565b610c3c6113bb565b73ffffffffffffffffffffffffffffffffffffffff16610c5a610ebe565b73ffffffffffffffffffffffffffffffffffffffff1614610ca7576040517f08c379a000000000000000000000000000000000000000000000000000000000815260040161069390612db9565b610a88816000611564565b60008181526002602052604081205473ffffffffffffffffffffffffffffffffffffffff16806105b7576040517f08c379a000000000000000000000000000000000000000000000000000000000815260040161069390612cca565b600073ffffffffffffffffffffffffffffffffffffffff8216610d5d576040517f08c379a000000000000000000000000000000000000000000000000000000000815260040161069390612c6d565b5073ffffffffffffffffffffffffffffffffffffffff1660009081526003602052604090205490565b610d8e6113bb565b73ffffffffffffffffffffffffffffffffffffffff16610dac610ebe565b73ffffffffffffffffffffffffffffffffffffffff1614610df9576040517f08c379a000000000000000000000000000000000000000000000000000000000815260040161069390612db9565b610e036000611899565b565b610e0d6113bb565b73ffffffffffffffffffffffffffffffffffffffff16610e2b610ebe565b73ffffffffffffffffffffffffffffffffffffffff1614610e78576040517f08c379a000000000000000000000000000000000000000000000000000000000815260040161069390612db9565b6000610e82611910565b9050610e8e8282611921565b610e96611a73565b5050565b60116020526000908152604090205481565b60106020526000908152604090205481565b600d5473ffffffffffffffffffffffffffffffffffffffff1690565b6060600180546105ce90613058565b610ef16113bb565b73ffffffffffffffffffffffffffffffffffffffff168273ffffffffffffffffffffffffffffffffffffffff161415610f56576040517f08c379a000000000000000000000000000000000000000000000000000000000815260040161069390612b1f565b8060056000610f636113bb565b73ffffffffffffffffffffffffffffffffffffffff90811682526020808301939093526040918201600090812091871680825291909352912080547fffffffffffffffffffffffffffffffffffffffffffffffffffffffffffffff001692151592909217909155610fd26113bb565b73ffffffffffffffffffffffffffffffffffffffff167f17307eab39ab6107e8899845ad3d59bd9653f200f220920489ca2b5937696c318360405161101791906128c7565b60405180910390a35050565b61103461102e6113bb565b83611607565b61106a576040517f08c379a000000000000000000000000000000000000000000000000000000000815260040161069390612f05565b61107684848484611a8a565b50505050565b60606110866110b6565b61108f83611ad7565b6040516020016110a09291906127b6565b6040516020818303038152906040529050919050565b606060405180606001604052806039815260200161321a60399139905090565b600e546040517fc455279100000000000000000000000000000000000000000000000000000000815260009173ffffffffffffffffffffffffffffffffffffffff9081169190841690829063c45527919061113590889060040161281b565b60206040518083038186803b15801561114d57600080fd5b505afa158015611161573d6000803e3d6000fd5b505050506040513d601f19601f82011682018060405250810190611185919061242e565b73ffffffffffffffffffffffffffffffffffffffff1614156111ab576001915050610b81565b6111b58484611c58565b949350505050565b6111c56113bb565b73ffffffffffffffffffffffffffffffffffffffff166111e3610ebe565b73ffffffffffffffffffffffffffffffffffffffff1614611230576040517f08c379a000000000000000000000000000000000000000000000000000000000815260040161069390612db9565b73ffffffffffffffffffffffffffffffffffffffff811661127d576040517f08c379a0000000000000000000000000000000000000000000000000000000008152600401610693906129f7565b610a8881611899565b6000333014156112ea57600080368080601f01602080910402602001604051908101604052809392919081815260200183838082843760009201919091525050505036015173ffffffffffffffffffffffffffffffffffffffff16915061064f9050565b503390565b60007fffffffff0000000000000000000000000000000000000000000000000000000082167f80ac58cd00000000000000000000000000000000000000000000000000000000148061138257507fffffffff0000000000000000000000000000000000000000000000000000000082167f5b5e139f00000000000000000000000000000000000000000000000000000000145b806105b757506105b782611c93565b60009081526002602052604090205473ffffffffffffffffffffffffffffffffffffffff16151590565b60006113c5611286565b905090565b600081815260046020526040902080547fffffffffffffffffffffffff00000000000000000000000000000000000000001673ffffffffffffffffffffffffffffffffffffffff8416908117909155819061142482610cb2565b73ffffffffffffffffffffffffffffffffffffffff167f8c5be1e5ebec7d5bd14f71427d1e84f3dd0314c0f7b2291e5b200ac8c7c3b92560405160405180910390a45050565b600073ffffffffffffffffffffffffffffffffffffffff86166114b9576040517f08c379a000000000000000000000000000000000000000000000000000000000815260040161069390612bb3565b60016114cc6114c787611cdd565b611d3b565b838686604051600081526020016040526040516114ec949392919061290c565b6020604051602081039080840390855afa15801561150e573d6000803e3d6000fd5b5050506020604051035173ffffffffffffffffffffffffffffffffffffffff168673ffffffffffffffffffffffffffffffffffffffff1614905095945050505050565b600061155d8284612fe9565b9392505050565b60005b82518110156107c05781601160008584815181106115ae577f4e487b7100000000000000000000000000000000000000000000000000000000600052603260045260246000fd5b602002602001015173ffffffffffffffffffffffffffffffffffffffff1673ffffffffffffffffffffffffffffffffffffffff1681526020019081526020016000208190555080806115ff906130ac565b915050611567565b600061161282611391565b611648576040517f08c379a000000000000000000000000000000000000000000000000000000000815260040161069390612b56565b600061165383610cb2565b90508073ffffffffffffffffffffffffffffffffffffffff168473ffffffffffffffffffffffffffffffffffffffff1614806116c257508373ffffffffffffffffffffffffffffffffffffffff166116aa84610652565b73ffffffffffffffffffffffffffffffffffffffff16145b806111b557506111b581856110d6565b8273ffffffffffffffffffffffffffffffffffffffff166116f282610cb2565b73ffffffffffffffffffffffffffffffffffffffff161461173f576040517f08c379a000000000000000000000000000000000000000000000000000000000815260040161069390612dee565b73ffffffffffffffffffffffffffffffffffffffff821661178c576040517f08c379a000000000000000000000000000000000000000000000000000000000815260040161069390612ac2565b611797838383611d57565b6117a26000826113ca565b73ffffffffffffffffffffffffffffffffffffffff831660009081526003602052604081208054600192906117d8908490613015565b909155505073ffffffffffffffffffffffffffffffffffffffff82166000908152600360205260408120805460019290611813908490612fe9565b909155505060008181526002602052604080822080547fffffffffffffffffffffffff00000000000000000000000000000000000000001673ffffffffffffffffffffffffffffffffffffffff86811691821790925591518493918716917fddf252ad1be2c89b69c2b068fc378daa952ba7f163c4a11628f55a4df523b3ef91a4505050565b600d805473ffffffffffffffffffffffffffffffffffffffff8381167fffffffffffffffffffffffff0000000000000000000000000000000000000000831681179093556040519116919082907f8be0079c531659141344cd1fd0a4f28419497f9722a3daafe3b4186f6b6457e090600090a35050565b600f546000906113c5906001611551565b73ffffffffffffffffffffffffffffffffffffffff821661196e576040517f08c379a000000000000000000000000000000000000000000000000000000000815260040161069390612d27565b61197781611391565b156119ae576040517f08c379a000000000000000000000000000000000000000000000000000000000815260040161069390612a8b565b6119ba60008383611d57565b73ffffffffffffffffffffffffffffffffffffffff821660009081526003602052604081208054600192906119f0908490612fe9565b909155505060008181526002602052604080822080547fffffffffffffffffffffffff00000000000000000000000000000000000000001673ffffffffffffffffffffffffffffffffffffffff861690811790915590518392907fddf252ad1be2c89b69c2b068fc378daa952ba7f163c4a11628f55a4df523b3ef908290a45050565b600f8054906000611a83836130ac565b9190505550565b611a958484846116d2565b611aa184848484611e9e565b611076576040517f08c379a00000000000000000000000000000000000000000000000000000000081526004016106939061299a565b606081611b18575060408051808201909152600181527f300000000000000000000000000000000000000000000000000000000000000060208201526105ba565b8160005b8115611b425780611b2c816130ac565b9150611b3b9050600a83613001565b9150611b1c565b60008167ffffffffffffffff811115611b84577f4e487b7100000000000000000000000000000000000000000000000000000000600052604160045260246000fd5b6040519080825280601f01601f191660200182016040528015611bae576020820181803683370190505b5090505b84156111b557611bc3600183613015565b9150611bd0600a866130e5565b611bdb906030612fe9565b60f81b818381518110611c17577f4e487b7100000000000000000000000000000000000000000000000000000000600052603260045260246000fd5b60200101907effffffffffffffffffffffffffffffffffffffffffffffffffffffffffffff1916908160001a905350611c51600a86613001565b9450611bb2565b73ffffffffffffffffffffffffffffffffffffffff918216600090815260056020908152604080832093909416825291909152205460ff1690565b7fffffffff0000000000000000000000000000000000000000000000000000000081167f01ffc9a70000000000000000000000000000000000000000000000000000000014919050565b60006040518060800160405280604381526020016131d76043913980516020918201208351848301516040808701518051908601209051611d1e95016128db565b604051602081830303815290604052805190602001209050919050565b6000611d45610a8b565b82604051602001611d1e9291906127e5565b611d6283838361203c565b33611d6c81612113565b15611076578073ffffffffffffffffffffffffffffffffffffffff16637b1039996040518163ffffffff1660e01b815260040160206040518083038186803b158015611db757600080fd5b505afa925050508015611e05575060408051601f3d9081017fffffffffffffffffffffffffffffffffffffffffffffffffffffffffffffffe0168201909252611e029181019061242e565b60015b611e3f573d808015611e33576040519150601f19603f3d011682016040523d82523d6000602084013e611e38565b606091505b5050611076565b73ffffffffffffffffffffffffffffffffffffffff811660009081526011602052604090205460011415611e9757600083815260106020526040902054611e87906001611551565b6000848152601060205260409020555b5050505050565b6000611ebf8473ffffffffffffffffffffffffffffffffffffffff16612113565b15612031578373ffffffffffffffffffffffffffffffffffffffff1663150b7a02611ee86113bb565b8786866040518563ffffffff1660e01b8152600401611f0a949392919061287e565b602060405180830381600087803b158015611f2457600080fd5b505af1925050508015611f72575060408051601f3d9081017fffffffffffffffffffffffffffffffffffffffffffffffffffffffffffffffe0168201909252611f6f918101906126d2565b60015b611fe6573d808015611fa0576040519150601f19603f3d011682016040523d82523d6000602084013e611fa5565b606091505b508051611fde576040517f08c379a00000000000000000000000000000000000000000000000000000000081526004016106939061299a565b805181602001fd5b7fffffffff00000000000000000000000000000000000000000000000000000000167f150b7a02000000000000000000000000000000000000000000000000000000001490506111b5565b506001949350505050565b6120478383836107c0565b73ffffffffffffffffffffffffffffffffffffffff83166120705761206b81612119565b6120ad565b8173ffffffffffffffffffffffffffffffffffffffff168373ffffffffffffffffffffffffffffffffffffffff16146120ad576120ad838261215d565b73ffffffffffffffffffffffffffffffffffffffff82166120d6576120d181612214565b6107c0565b8273ffffffffffffffffffffffffffffffffffffffff168273ffffffffffffffffffffffffffffffffffffffff16146107c0576107c08282612338565b3b151590565b600880546000838152600960205260408120829055600182018355919091527ff3f7a9fe364faab93b216da50a3214154f22a0a2b415b23a84c8169e8b636ee30155565b6000600161216a84610d0e565b6121749190613015565b6000838152600760205260409020549091508082146121d45773ffffffffffffffffffffffffffffffffffffffff841660009081526006602090815260408083208584528252808320548484528184208190558352600790915290208190555b50600091825260076020908152604080842084905573ffffffffffffffffffffffffffffffffffffffff9094168352600681528383209183525290812055565b60085460009061222690600190613015565b60008381526009602052604081205460088054939450909284908110612275577f4e487b7100000000000000000000000000000000000000000000000000000000600052603260045260246000fd5b9060005260206000200154905080600883815481106122bd577f4e487b7100000000000000000000000000000000000000000000000000000000600052603260045260246000fd5b600091825260208083209091019290925582815260099091526040808220849055858252812055600880548061231c577f4e487b7100000000000000000000000000000000000000000000000000000000600052603160045260246000fd5b6001900381819060005260206000200160009055905550505050565b600061234383610d0e565b73ffffffffffffffffffffffffffffffffffffffff9093166000908152600660209081526040808320868452825280832085905593825260079052919091209190915550565b600082601f830112612399578081fd5b813567ffffffffffffffff8111156123b3576123b3613157565b6123e460207fffffffffffffffffffffffffffffffffffffffffffffffffffffffffffffffe0601f84011601612fbf565b8181528460208386010111156123f8578283fd5b816020850160208301379081016020019190915292915050565b600060208284031215612423578081fd5b813561155d81613186565b60006020828403121561243f578081fd5b815161155d81613186565b6000806040838503121561245c578081fd5b823561246781613186565b9150602083013561247781613186565b809150509250929050565b600080600060608486031215612496578081fd5b83356124a181613186565b925060208401356124b181613186565b929592945050506040919091013590565b600080600080608085870312156124d7578081fd5b84356124e281613186565b935060208501356124f281613186565b925060408501359150606085013567ffffffffffffffff811115612514578182fd5b61252087828801612389565b91505092959194509250565b6000806040838503121561253e578182fd5b823561254981613186565b915060208301358015158114612477578182fd5b600080600080600060a08688031215612574578081fd5b853561257f81613186565b9450602086013567ffffffffffffffff81111561259a578182fd5b6125a688828901612389565b9450506040860135925060608601359150608086013560ff811681146125ca578182fd5b809150509295509295909350565b600080604083850312156125ea578182fd5b82356125f581613186565b946020939093013593505050565b60006020808385031215612615578182fd5b823567ffffffffffffffff8082111561262c578384fd5b818501915085601f83011261263f578384fd5b81358181111561265157612651613157565b8381029150612661848301612fbf565b8181528481019084860184860187018a101561267b578788fd5b8795505b838610156126a9578035945061269485613186565b8483526001959095019491860191860161267f565b5098975050505050505050565b6000602082840312156126c7578081fd5b813561155d816131a8565b6000602082840312156126e3578081fd5b815161155d816131a8565b6000602082840312156126ff578081fd5b5035919050565b6000815180845261271e81602086016020860161302c565b601f017fffffffffffffffffffffffffffffffffffffffffffffffffffffffffffffffe0169290920160200192915050565b6000825161276281846020870161302c565b9190910192915050565b6000835161277e81846020880161302c565b60609390931b7fffffffffffffffffffffffffffffffffffffffff000000000000000000000000169190920190815260140192915050565b600083516127c881846020880161302c565b8351908301906127dc81836020880161302c565b01949350505050565b7f190100000000000000000000000000000000000000000000000000000000000081526002810192909252602282015260420190565b73ffffffffffffffffffffffffffffffffffffffff91909116815260200190565b600073ffffffffffffffffffffffffffffffffffffffff8086168352808516602084015250606060408301526128756060830184612706565b95945050505050565b600073ffffffffffffffffffffffffffffffffffffffff8087168352808616602084015250836040830152608060608301526128bd6080830184612706565b9695505050505050565b901515815260200190565b90815260200190565b938452602084019290925273ffffffffffffffffffffffffffffffffffffffff166040830152606082015260800190565b93845260ff9290921660208401526040830152606082015260800190565b60006020825261155d6020830184612706565b6020808252602b908201527f455243373231456e756d657261626c653a206f776e657220696e646578206f7560408201527f74206f6620626f756e6473000000000000000000000000000000000000000000606082015260800190565b60208082526032908201527f4552433732313a207472616e7366657220746f206e6f6e20455243373231526560408201527f63656976657220696d706c656d656e7465720000000000000000000000000000606082015260800190565b60208082526026908201527f4f776e61626c653a206e6577206f776e657220697320746865207a65726f206160408201527f6464726573730000000000000000000000000000000000000000000000000000606082015260800190565b6020808252601c908201527f46756e6374696f6e2063616c6c206e6f74207375636365737366756c00000000604082015260600190565b6020808252601c908201527f4552433732313a20746f6b656e20616c7265616479206d696e74656400000000604082015260600190565b60208082526024908201527f4552433732313a207472616e7366657220746f20746865207a65726f2061646460408201527f7265737300000000000000000000000000000000000000000000000000000000606082015260800190565b60208082526019908201527f4552433732313a20617070726f766520746f2063616c6c657200000000000000604082015260600190565b6020808252602c908201527f4552433732313a206f70657261746f7220717565727920666f72206e6f6e657860408201527f697374656e7420746f6b656e0000000000000000000000000000000000000000606082015260800190565b60208082526025908201527f4e61746976654d6574615472616e73616374696f6e3a20494e56414c49445f5360408201527f49474e4552000000000000000000000000000000000000000000000000000000606082015260800190565b60208082526038908201527f4552433732313a20617070726f76652063616c6c6572206973206e6f74206f7760408201527f6e6572206e6f7220617070726f76656420666f7220616c6c0000000000000000606082015260800190565b6020808252602a908201527f4552433732313a2062616c616e636520717565727920666f7220746865207a6560408201527f726f206164647265737300000000000000000000000000000000000000000000606082015260800190565b60208082526029908201527f4552433732313a206f776e657220717565727920666f72206e6f6e657869737460408201527f656e7420746f6b656e0000000000000000000000000000000000000000000000606082015260800190565b6020808252818101527f4552433732313a206d696e7420746f20746865207a65726f2061646472657373604082015260600190565b6020808252602c908201527f4552433732313a20617070726f76656420717565727920666f72206e6f6e657860408201527f697374656e7420746f6b656e0000000000000000000000000000000000000000606082015260800190565b6020808252818101527f4f776e61626c653a2063616c6c6572206973206e6f7420746865206f776e6572604082015260600190565b60208082526029908201527f4552433732313a207472616e73666572206f6620746f6b656e2074686174206960408201527f73206e6f74206f776e0000000000000000000000000000000000000000000000606082015260800190565b60208082526021908201527f5369676e657220616e64207369676e617475726520646f206e6f74206d61746360408201527f6800000000000000000000000000000000000000000000000000000000000000606082015260800190565b60208082526021908201527f4552433732313a20617070726f76616c20746f2063757272656e74206f776e6560408201527f7200000000000000000000000000000000000000000000000000000000000000606082015260800190565b60208082526031908201527f4552433732313a207472616e736665722063616c6c6572206973206e6f74206f60408201527f776e6572206e6f7220617070726f766564000000000000000000000000000000606082015260800190565b6020808252602c908201527f455243373231456e756d657261626c653a20676c6f62616c20696e646578206f60408201527f7574206f6620626f756e64730000000000000000000000000000000000000000606082015260800190565b60405181810167ffffffffffffffff81118282101715612fe157612fe1613157565b604052919050565b60008219821115612ffc57612ffc6130f9565b500190565b60008261301057613010613128565b500490565b600082821015613027576130276130f9565b500390565b60005b8381101561304757818101518382015260200161302f565b838111156110765750506000910152565b60028104600182168061306c57607f821691505b602082108114156130a6577f4e487b7100000000000000000000000000000000000000000000000000000000600052602260045260246000fd5b50919050565b60007fffffffffffffffffffffffffffffffffffffffffffffffffffffffffffffffff8214156130de576130de6130f9565b5060010190565b6000826130f4576130f4613128565b500690565b7f4e487b7100000000000000000000000000000000000000000000000000000000600052601160045260246000fd5b7f4e487b7100000000000000000000000000000000000000000000000000000000600052601260045260246000fd5b7f4e487b7100000000000000000000000000000000000000000000000000000000600052604160045260246000fd5b73ffffffffffffffffffffffffffffffffffffffff81168114610a8857600080fd5b7fffffffff0000000000000000000000000000000000000000000000000000000081168114610a8857600080fdfe4d6574615472616e73616374696f6e2875696e74323536206e6f6e63652c616464726573732066726f6d2c62797465732066756e6374696f6e5369676e61747572652968747470733a2f2f6f70656e7365612d6372656174757265732d6170692e6865726f6b756170702e636f6d2f6170692f63726561747572652fa2646970667358221220d684da73406b93e7402f63382a41c5520281bbde7b86d15dc3cdcf4cfe098abb64736f6c63430008000033454950373132446f6d61696e28737472696e67206e616d652c737472696e672076657273696f6e2c6164647265737320766572696679696e67436f6e74726163742c627974657333322073616c7429",
  "devdoc": {
    "kind": "dev",
    "methods": {
      "approve(address,uint256)": {
        "details": "See {IERC721-approve}."
      },
      "balanceOf(address)": {
        "details": "See {IERC721-balanceOf}."
      },
      "getApproved(uint256)": {
        "details": "See {IERC721-getApproved}."
      },
      "mintTo(address)": {
        "details": "Mints a token to an address with a tokenURI.",
        "params": {
          "_to": "address of the future owner of the token"
        }
      },
      "name()": {
        "details": "See {IERC721Metadata-name}."
      },
      "owner()": {
        "details": "Returns the address of the current owner."
      },
      "ownerOf(uint256)": {
        "details": "See {IERC721-ownerOf}."
      },
      "renounceOwnership()": {
        "details": "Leaves the contract without owner. It will not be possible to call `onlyOwner` functions anymore. Can only be called by the current owner. NOTE: Renouncing ownership will leave the contract without an owner, thereby removing any functionality that is only available to the owner."
      },
      "safeTransferFrom(address,address,uint256)": {
        "details": "See {IERC721-safeTransferFrom}."
      },
      "safeTransferFrom(address,address,uint256,bytes)": {
        "details": "See {IERC721-safeTransferFrom}."
      },
      "setApprovalForAll(address,bool)": {
        "details": "See {IERC721-setApprovalForAll}."
      },
      "supportsInterface(bytes4)": {
        "details": "See {IERC165-supportsInterface}."
      },
      "symbol()": {
        "details": "See {IERC721Metadata-symbol}."
      },
      "tokenByIndex(uint256)": {
        "details": "See {IERC721Enumerable-tokenByIndex}."
      },
      "tokenOfOwnerByIndex(address,uint256)": {
        "details": "See {IERC721Enumerable-tokenOfOwnerByIndex}."
      },
      "totalSupply()": {
        "details": "See {IERC721Enumerable-totalSupply}."
      },
      "transferFrom(address,address,uint256)": {
        "details": "See {IERC721-transferFrom}."
      },
      "transferOwnership(address)": {
        "details": "Transfers ownership of the contract to a new account (`newOwner`). Can only be called by the current owner."
      }
    },
    "version": 1
  },
  "userdoc": {
    "kind": "user",
    "methods": {
      "isApprovedForAll(address,address)": {
        "notice": "Override isApprovedForAll to whitelist user's OpenSea proxy accounts to enable gas-less listings."
      }
    },
    "version": 1
  },
  "storageLayout": {
    "storage": [
      {
        "astId": 129,
        "contract": "contracts/Erc721TemplateV2.sol:Erc721TemplateV2",
        "label": "_name",
        "offset": 0,
        "slot": "0",
        "type": "t_string_storage"
      },
      {
        "astId": 131,
        "contract": "contracts/Erc721TemplateV2.sol:Erc721TemplateV2",
        "label": "_symbol",
        "offset": 0,
        "slot": "1",
        "type": "t_string_storage"
      },
      {
        "astId": 135,
        "contract": "contracts/Erc721TemplateV2.sol:Erc721TemplateV2",
        "label": "_owners",
        "offset": 0,
        "slot": "2",
        "type": "t_mapping(t_uint256,t_address)"
      },
      {
        "astId": 139,
        "contract": "contracts/Erc721TemplateV2.sol:Erc721TemplateV2",
        "label": "_balances",
        "offset": 0,
        "slot": "3",
        "type": "t_mapping(t_address,t_uint256)"
      },
      {
        "astId": 143,
        "contract": "contracts/Erc721TemplateV2.sol:Erc721TemplateV2",
        "label": "_tokenApprovals",
        "offset": 0,
        "slot": "4",
        "type": "t_mapping(t_uint256,t_address)"
      },
      {
        "astId": 149,
        "contract": "contracts/Erc721TemplateV2.sol:Erc721TemplateV2",
        "label": "_operatorApprovals",
        "offset": 0,
        "slot": "5",
        "type": "t_mapping(t_address,t_mapping(t_address,t_bool))"
      },
      {
        "astId": 1068,
        "contract": "contracts/Erc721TemplateV2.sol:Erc721TemplateV2",
        "label": "_ownedTokens",
        "offset": 0,
        "slot": "6",
        "type": "t_mapping(t_address,t_mapping(t_uint256,t_uint256))"
      },
      {
        "astId": 1072,
        "contract": "contracts/Erc721TemplateV2.sol:Erc721TemplateV2",
        "label": "_ownedTokensIndex",
        "offset": 0,
        "slot": "7",
        "type": "t_mapping(t_uint256,t_uint256)"
      },
      {
        "astId": 1075,
        "contract": "contracts/Erc721TemplateV2.sol:Erc721TemplateV2",
        "label": "_allTokens",
        "offset": 0,
        "slot": "8",
        "type": "t_array(t_uint256)dyn_storage"
      },
      {
        "astId": 1079,
        "contract": "contracts/Erc721TemplateV2.sol:Erc721TemplateV2",
        "label": "_allTokensIndex",
        "offset": 0,
        "slot": "9",
        "type": "t_mapping(t_uint256,t_uint256)"
      },
      {
        "astId": 3119,
        "contract": "contracts/Erc721TemplateV2.sol:Erc721TemplateV2",
        "label": "inited",
        "offset": 0,
        "slot": "10",
        "type": "t_bool"
      },
      {
        "astId": 3026,
        "contract": "contracts/Erc721TemplateV2.sol:Erc721TemplateV2",
        "label": "domainSeperator",
        "offset": 0,
        "slot": "11",
        "type": "t_bytes32"
      },
      {
        "astId": 3164,
        "contract": "contracts/Erc721TemplateV2.sol:Erc721TemplateV2",
        "label": "nonces",
        "offset": 0,
        "slot": "12",
        "type": "t_mapping(t_address,t_uint256)"
      },
      {
        "astId": 7,
        "contract": "contracts/Erc721TemplateV2.sol:Erc721TemplateV2",
        "label": "_owner",
        "offset": 0,
        "slot": "13",
        "type": "t_address"
      },
      {
        "astId": 2349,
        "contract": "contracts/Erc721TemplateV2.sol:Erc721TemplateV2",
        "label": "proxyRegistryAddress",
        "offset": 0,
        "slot": "14",
        "type": "t_address"
      },
      {
        "astId": 2352,
        "contract": "contracts/Erc721TemplateV2.sol:Erc721TemplateV2",
        "label": "_currentTokenId",
        "offset": 0,
        "slot": "15",
        "type": "t_uint256"
      },
      {
        "astId": 2803,
        "contract": "contracts/Erc721TemplateV2.sol:Erc721TemplateV2",
        "label": "tradeCount",
        "offset": 0,
        "slot": "16",
        "type": "t_mapping(t_uint256,t_uint256)"
      },
      {
        "astId": 2807,
        "contract": "contracts/Erc721TemplateV2.sol:Erc721TemplateV2",
        "label": "openSeaAddress",
        "offset": 0,
        "slot": "17",
        "type": "t_mapping(t_address,t_uint256)"
      }
    ],
    "types": {
      "t_address": {
        "encoding": "inplace",
        "label": "address",
        "numberOfBytes": "20"
      },
      "t_array(t_uint256)dyn_storage": {
        "base": "t_uint256",
        "encoding": "dynamic_array",
        "label": "uint256[]",
        "numberOfBytes": "32"
      },
      "t_bool": {
        "encoding": "inplace",
        "label": "bool",
        "numberOfBytes": "1"
      },
      "t_bytes32": {
        "encoding": "inplace",
        "label": "bytes32",
        "numberOfBytes": "32"
      },
      "t_mapping(t_address,t_bool)": {
        "encoding": "mapping",
        "key": "t_address",
        "label": "mapping(address => bool)",
        "numberOfBytes": "32",
        "value": "t_bool"
      },
      "t_mapping(t_address,t_mapping(t_address,t_bool))": {
        "encoding": "mapping",
        "key": "t_address",
        "label": "mapping(address => mapping(address => bool))",
        "numberOfBytes": "32",
        "value": "t_mapping(t_address,t_bool)"
      },
      "t_mapping(t_address,t_mapping(t_uint256,t_uint256))": {
        "encoding": "mapping",
        "key": "t_address",
        "label": "mapping(address => mapping(uint256 => uint256))",
        "numberOfBytes": "32",
        "value": "t_mapping(t_uint256,t_uint256)"
      },
      "t_mapping(t_address,t_uint256)": {
        "encoding": "mapping",
        "key": "t_address",
        "label": "mapping(address => uint256)",
        "numberOfBytes": "32",
        "value": "t_uint256"
      },
      "t_mapping(t_uint256,t_address)": {
        "encoding": "mapping",
        "key": "t_uint256",
        "label": "mapping(uint256 => address)",
        "numberOfBytes": "32",
        "value": "t_address"
      },
      "t_mapping(t_uint256,t_uint256)": {
        "encoding": "mapping",
        "key": "t_uint256",
        "label": "mapping(uint256 => uint256)",
        "numberOfBytes": "32",
        "value": "t_uint256"
      },
      "t_string_storage": {
        "encoding": "bytes",
        "label": "string",
        "numberOfBytes": "32"
      },
      "t_uint256": {
        "encoding": "inplace",
        "label": "uint256",
        "numberOfBytes": "32"
      }
    }
  }
}